{
    "_format": "hh-sol-artifact-1",
    "contractName": "Tornado",
    "sourceName": "contracts/Tornado.sol",
    "abi": [
        {
            "inputs": [
                {
                    "internalType": "address",
                    "name": "_hasher",
                    "type": "address"
                }
            ],
            "stateMutability": "nonpayable",
            "type": "constructor"
        },
        {
            "anonymous": false,
            "inputs": [
                {
                    "indexed": true,
                    "internalType": "uint256",
                    "name": "root",
                    "type": "uint256"
                },
                {
                    "indexed": false,
                    "internalType": "uint256[10]",
                    "name": "hashPairings",
                    "type": "uint256[10]"
                },
                {
                    "indexed": false,
                    "internalType": "uint8[10]",
                    "name": "pairDirection",
                    "type": "uint8[10]"
                }
            ],
            "name": "Deposit",
            "type": "event"
        },
        {
            "inputs": [],
            "name": "DENOMINATION",
            "outputs": [
                {
                    "internalType": "uint256",
                    "name": "",
                    "type": "uint256"
                }
            ],
            "stateMutability": "view",
            "type": "function"
        },
        {
            "inputs": [
                {
                    "internalType": "uint256",
                    "name": "",
                    "type": "uint256"
                }
            ],
            "name": "commitments",
            "outputs": [
                {
                    "internalType": "bool",
                    "name": "",
                    "type": "bool"
                }
            ],
            "stateMutability": "view",
            "type": "function"
        },
        {
            "inputs": [
                {
                    "internalType": "uint256",
                    "name": "_commitment",
                    "type": "uint256"
                }
            ],
            "name": "deposit",
            "outputs": [],
            "stateMutability": "payable",
            "type": "function"
        },
        {
            "inputs": [],
            "name": "hasher",
            "outputs": [
                {
                    "internalType": "contract Hasher",
                    "name": "",
                    "type": "address"
                }
            ],
            "stateMutability": "view",
            "type": "function"
        },
        {
            "inputs": [
                {
                    "internalType": "uint8",
                    "name": "",
                    "type": "uint8"
                }
            ],
            "name": "lastLevelHash",
            "outputs": [
                {
                    "internalType": "uint256",
                    "name": "",
                    "type": "uint256"
                }
            ],
            "stateMutability": "view",
            "type": "function"
        },
        {
            "inputs": [],
            "name": "nextLeafIdex",
            "outputs": [
                {
                    "internalType": "uint256",
                    "name": "",
                    "type": "uint256"
                }
            ],
            "stateMutability": "view",
            "type": "function"
        },
        {
            "inputs": [
                {
                    "internalType": "uint256",
                    "name": "",
                    "type": "uint256"
                }
            ],
            "name": "nullifierHashs",
            "outputs": [
                {
                    "internalType": "bool",
                    "name": "",
                    "type": "bool"
                }
            ],
            "stateMutability": "view",
            "type": "function"
        },
        {
            "inputs": [
                {
                    "internalType": "uint256",
                    "name": "",
                    "type": "uint256"
                }
            ],
            "name": "roots",
            "outputs": [
                {
                    "internalType": "bool",
                    "name": "",
                    "type": "bool"
                }
            ],
            "stateMutability": "view",
            "type": "function"
        },
        {
            "inputs": [],
            "name": "treeLevel",
            "outputs": [
                {
                    "internalType": "uint8",
                    "name": "",
                    "type": "uint8"
                }
            ],
            "stateMutability": "view",
            "type": "function"
        }
    ],
    "bytecode": "0x6080604052600a600160146101000a81548160ff021916908360ff16021790555060006002556040518061014001604052807fd4b1397294ac371d7e6327985b84e513e1a67d7511cd9e97c8d863f475234ff381526020017f7a1950291d8f8d98ffa31fb48d4ade1f75579c189663a7ad6253e054eb3c6e0281526020017f9a5bd8dcbf46dd9d94aa5f453a88c30ea30078f4233b48b7e6a09c309efcaacf81526020017f10d25a62653575746e8c8d14d457cad6d4d84237f8c0469f2b6fc1d8eefdedcf81526020017fb8cca00d5457eeba20a4a2559e4b7b8474aa461fdcca193ab9c684f42548a79281526020017ff1fa21b6a1c7e39c31bc19188cd3492b0093f7a08b3a5452bcc90fd72e39169b81526020017fa7719a5fce76578cf8f2fe028aa33a8d8dafbb9d56d135d6bdbb98b588bfbe4d81526020017fd74b7e6e290c206af23fa785f7088f4646778a6f4e238bff11a81493b421da6b81526020017f43b04fd9e248d46a8e3c53786aaa06abcbc7152859d957393a7ed77f937b82df81526020017f4a6b78ef2b2e9ae43bb3c90c13058a03141de722292df4b889908ef2f19fd3e6815250600790600a620001bd92919062000241565b50348015620001cb57600080fd5b50604051620014ad380380620014ad8339818101604052810190620001f191906200030f565b600160008190555080600160006101000a81548173ffffffffffffffffffffffffffffffffffffffff021916908373ffffffffffffffffffffffffffffffffffffffff1602179055505062000341565b82600a810192821562000273579160200282015b828111156200027257825182559160200191906001019062000255565b5b50905062000282919062000286565b5090565b5b80821115620002a157600081600090555060010162000287565b5090565b600080fd5b600073ffffffffffffffffffffffffffffffffffffffff82169050919050565b6000620002d782620002aa565b9050919050565b620002e981620002ca565b8114620002f557600080fd5b50565b6000815190506200030981620002de565b92915050565b600060208284031215620003285762000327620002a5565b5b60006200033884828501620002f8565b91505092915050565b61115c80620003516000396000f3fe6080604052600436106100865760003560e01c8063b6b55f2511610059578063b6b55f251461015b578063b8e7956414610177578063c2b40ae4146101a2578063d5400047146101df578063ed33639f1461021c57610086565b806306683e4b1461008b57806349ce8997146100b65780637b5758b1146100f35780638b01429d14610130575b600080fd5b34801561009757600080fd5b506100a0610247565b6040516100ad9190610852565b60405180910390f35b3480156100c257600080fd5b506100dd60048036038101906100d8919061089e565b61024d565b6040516100ea91906108e6565b60405180910390f35b3480156100ff57600080fd5b5061011a6004803603810190610115919061089e565b61026d565b60405161012791906108e6565b60405180910390f35b34801561013c57600080fd5b5061014561028d565b6040516101529190610852565b60405180910390f35b6101756004803603810190610170919061089e565b610299565b005b34801561018357600080fd5b5061018c610707565b604051610199919061091d565b60405180910390f35b3480156101ae57600080fd5b506101c960048036038101906101c4919061089e565b61071a565b6040516101d691906108e6565b60405180910390f35b3480156101eb57600080fd5b5061020660048036038101906102019190610964565b61073a565b6040516102139190610852565b60405180910390f35b34801561022857600080fd5b50610231610752565b60405161023e9190610a10565b60405180910390f35b60025481565b60066020528060005260406000206000915054906101000a900460ff1681565b60056020528060005260406000206000915054906101000a900460ff1681565b670de0b6b3a764000081565b6102a1610778565b670de0b6b3a764000034146102eb576040517f08c379a00000000000000000000000000000000000000000000000000000000081526004016102e290610a88565b60405180910390fd5b6006600082815260200190815260200160002060009054906101000a900460ff161561034c576040517f08c379a000000000000000000000000000000000000000000000000000000000815260040161034390610af4565b60405180910390fd5b600160149054906101000a900460ff1660026103689190610c76565b600254106103ab576040517f08c379a00000000000000000000000000000000000000000000000000000000081526004016103a290610d0d565b60405180910390fd5b60006103b56107d1565b6103bd6107f4565b6000600254905060008590506000806103d4610817565b60005b600160149054906101000a900460ff1660ff168160ff161015610644578460046000600160149054906101000a900460ff1660ff1660ff1681526020019081526020016000208190555060006002876104309190610d5c565b036104b95784935060078160ff16600a811061044f5761044e610d8d565b5b0154925060078160ff16600a811061046a57610469610d8d565b5b0154888260ff16600a811061048257610481610d8d565b5b6020020181815250506000878260ff16600a81106104a3576104a2610d8d565b5b602002019060ff16908160ff168152505061053b565b600460008260ff1660ff168152602001908152602001600020549350849250600460008260ff1660ff16815260200190815260200160002054888260ff16600a811061050857610507610d8d565b5b6020020181815250506001878260ff16600a811061052957610528610d8d565b5b602002019060ff16908160ff16815250505b83826000600281106105505761054f610d8d565b5b602002018181525050828260016002811061056e5761056d610d8d565b5b6020020181815250506000600160009054906101000a900473ffffffffffffffffffffffffffffffffffffffff1673ffffffffffffffffffffffffffffffffffffffff1663d622e5a4620249f0858e6040518463ffffffff1660e01b81526004016105da929190610e67565b6020604051808303818786fa1580156105f7573d6000803e3d6000fd5b50505050506040513d601f19601f8201168201806040525081019061061c9190610ea5565b905080955060028761062e9190610ed2565b965050808061063c90610f03565b9150506103d7565b508397506001600360008a815260200190815260200160002060006101000a81548160ff0219169083151502179055506001600260008282546106879190610f2c565b925050819055506001600660008b815260200190815260200160002060006101000a81548160ff021916908315150217905550877fe6ab8667cb740d6c65a4ad321c031eb42f6c5085d5753238d1b2e1e370c1348388886040516106ec92919061108f565b60405180910390a250505050505050506107046107c7565b50565b600160149054906101000a900460ff1681565b60036020528060005260406000206000915054906101000a900460ff1681565b60046020528060005260406000206000915090505481565b600160009054906101000a900473ffffffffffffffffffffffffffffffffffffffff1681565b6002600054036107bd576040517f08c379a00000000000000000000000000000000000000000000000000000000081526004016107b490611106565b60405180910390fd5b6002600081905550565b6001600081905550565b604051806101400160405280600a90602082028036833780820191505090505090565b604051806101400160405280600a90602082028036833780820191505090505090565b6040518060400160405280600290602082028036833780820191505090505090565b6000819050919050565b61084c81610839565b82525050565b60006020820190506108676000830184610843565b92915050565b600080fd5b61087b81610839565b811461088657600080fd5b50565b60008135905061089881610872565b92915050565b6000602082840312156108b4576108b361086d565b5b60006108c284828501610889565b91505092915050565b60008115159050919050565b6108e0816108cb565b82525050565b60006020820190506108fb60008301846108d7565b92915050565b600060ff82169050919050565b61091781610901565b82525050565b6000602082019050610932600083018461090e565b92915050565b61094181610901565b811461094c57600080fd5b50565b60008135905061095e81610938565b92915050565b60006020828403121561097a5761097961086d565b5b60006109888482850161094f565b91505092915050565b600073ffffffffffffffffffffffffffffffffffffffff82169050919050565b6000819050919050565b60006109d66109d16109cc84610991565b6109b1565b610991565b9050919050565b60006109e8826109bb565b9050919050565b60006109fa826109dd565b9050919050565b610a0a816109ef565b82525050565b6000602082019050610a256000830184610a01565b92915050565b600082825260208201905092915050565b7f696e636f727265637420616d6f756e7400000000000000000000000000000000600082015250565b6000610a72601083610a2b565b9150610a7d82610a3c565b602082019050919050565b60006020820190508181036000830152610aa181610a65565b9050919050565b7f6475706c696361746520636f6d6d69746d656e74206861736800000000000000600082015250565b6000610ade601983610a2b565b9150610ae982610aa8565b602082019050919050565b60006020820190508181036000830152610b0d81610ad1565b9050919050565b7f4e487b7100000000000000000000000000000000000000000000000000000000600052601160045260246000fd5b60008160011c9050919050565b6000808291508390505b6001851115610b9a57808604811115610b7657610b75610b14565b5b6001851615610b855780820291505b8081029050610b9385610b43565b9450610b5a565b94509492505050565b600082610bb35760019050610c6f565b81610bc15760009050610c6f565b8160018114610bd75760028114610be157610c10565b6001915050610c6f565b60ff841115610bf357610bf2610b14565b5b8360020a915084821115610c0a57610c09610b14565b5b50610c6f565b5060208310610133831016604e8410600b8410161715610c455782820a905083811115610c4057610c3f610b14565b5b610c6f565b610c528484846001610b50565b92509050818404811115610c6957610c68610b14565b5b81810290505b9392505050565b6000610c8182610839565b9150610c8c83610901565b9250610cb97fffffffffffffffffffffffffffffffffffffffffffffffffffffffffffffffff8484610ba3565b905092915050565b7f747265652066756c6c0000000000000000000000000000000000000000000000600082015250565b6000610cf7600983610a2b565b9150610d0282610cc1565b602082019050919050565b60006020820190508181036000830152610d2681610cea565b9050919050565b7f4e487b7100000000000000000000000000000000000000000000000000000000600052601260045260246000fd5b6000610d6782610839565b9150610d7283610839565b925082610d8257610d81610d2d565b5b828206905092915050565b7f4e487b7100000000000000000000000000000000000000000000000000000000600052603260045260246000fd5b600060029050919050565b600081905092915050565b6000819050919050565b610de581610839565b82525050565b6000610df78383610ddc565b60208301905092915050565b6000602082019050919050565b610e1981610dbc565b610e238184610dc7565b9250610e2e82610dd2565b8060005b83811015610e5f578151610e468782610deb565b9650610e5183610e03565b925050600181019050610e32565b505050505050565b6000606082019050610e7c6000830185610e10565b610e896040830184610843565b9392505050565b600081519050610e9f81610872565b92915050565b600060208284031215610ebb57610eba61086d565b5b6000610ec984828501610e90565b91505092915050565b6000610edd82610839565b9150610ee883610839565b925082610ef857610ef7610d2d565b5b828204905092915050565b6000610f0e82610901565b915060ff8203610f2157610f20610b14565b5b600182019050919050565b6000610f3782610839565b9150610f4283610839565b9250828201905080821115610f5a57610f59610b14565b5b92915050565b6000600a9050919050565b600081905092915050565b6000819050919050565b6000602082019050919050565b610f9681610f60565b610fa08184610f6b565b9250610fab82610f76565b8060005b83811015610fdc578151610fc38782610deb565b9650610fce83610f80565b925050600181019050610faf565b505050505050565b6000600a9050919050565b600081905092915050565b6000819050919050565b61100d81610901565b82525050565b600061101f8383611004565b60208301905092915050565b6000602082019050919050565b61104181610fe4565b61104b8184610fef565b925061105682610ffa565b8060005b8381101561108757815161106e8782611013565b96506110798361102b565b92505060018101905061105a565b505050505050565b6000610280820190506110a56000830185610f8d565b6110b3610140830184611038565b9392505050565b7f5265656e7472616e637947756172643a207265656e7472616e742063616c6c00600082015250565b60006110f0601f83610a2b565b91506110fb826110ba565b602082019050919050565b6000602082019050818103600083015261111f816110e3565b905091905056fea2646970667358221220b7caea35dcddccb4205ecc381645f2100fc127a9d00fb474e3fb633214d292ad64736f6c63430008110033",
    "linkReferences": {},
    "deployedLinkReferences": {}
}