{
    "_format": "hh-sol-artifact-1",
    "contractName": "Tornado",
    "sourceName": "contracts/Tornado.sol",
    "abi": [
        {
            "inputs": [
                {
                    "internalType": "address",
                    "name": "_hasher",
                    "type": "address"
                },
                {
                    "internalType": "address",
                    "name": "_verifier",
                    "type": "address"
                }
            ],
            "stateMutability": "nonpayable",
            "type": "constructor"
        },
        {
            "anonymous": false,
            "inputs": [
                {
                    "indexed": true,
                    "internalType": "uint256",
                    "name": "root",
                    "type": "uint256"
                },
                {
                    "indexed": false,
                    "internalType": "uint256[10]",
                    "name": "hashPairings",
                    "type": "uint256[10]"
                },
                {
                    "indexed": false,
                    "internalType": "uint8[10]",
                    "name": "pairDirection",
                    "type": "uint8[10]"
                }
            ],
            "name": "Deposit",
            "type": "event"
        },
        {
            "anonymous": false,
            "inputs": [
                {
                    "indexed": true,
                    "internalType": "address",
                    "name": "user",
                    "type": "address"
                },
                {
                    "indexed": true,
                    "internalType": "uint256",
                    "name": "nullifierHash",
                    "type": "uint256"
                }
            ],
            "name": "Withdrawal",
            "type": "event"
        },
        {
            "inputs": [
                {
                    "internalType": "uint256",
                    "name": "",
                    "type": "uint256"
                }
            ],
            "name": "commitments",
            "outputs": [
                {
                    "internalType": "bool",
                    "name": "",
                    "type": "bool"
                }
            ],
            "stateMutability": "view",
            "type": "function"
        },
        {
            "inputs": [],
            "name": "denomination",
            "outputs": [
                {
                    "internalType": "uint256",
                    "name": "",
                    "type": "uint256"
                }
            ],
            "stateMutability": "view",
            "type": "function"
        },
        {
            "inputs": [
                {
                    "internalType": "uint256",
                    "name": "_commitment",
                    "type": "uint256"
                }
            ],
            "name": "deposit",
            "outputs": [],
            "stateMutability": "payable",
            "type": "function"
        },
        {
            "inputs": [],
            "name": "hasher",
            "outputs": [
                {
                    "internalType": "contract Hasher",
                    "name": "",
                    "type": "address"
                }
            ],
            "stateMutability": "view",
            "type": "function"
        },
        {
            "inputs": [
                {
                    "internalType": "uint8",
                    "name": "",
                    "type": "uint8"
                }
            ],
            "name": "lastLevelHash",
            "outputs": [
                {
                    "internalType": "uint256",
                    "name": "",
                    "type": "uint256"
                }
            ],
            "stateMutability": "view",
            "type": "function"
        },
        {
            "inputs": [],
            "name": "nextLeafIdex",
            "outputs": [
                {
                    "internalType": "uint256",
                    "name": "",
                    "type": "uint256"
                }
            ],
            "stateMutability": "view",
            "type": "function"
        },
        {
            "inputs": [
                {
                    "internalType": "uint256",
                    "name": "",
                    "type": "uint256"
                }
            ],
            "name": "nullifierHashs",
            "outputs": [
                {
                    "internalType": "bool",
                    "name": "",
                    "type": "bool"
                }
            ],
            "stateMutability": "view",
            "type": "function"
        },
        {
            "inputs": [
                {
                    "internalType": "uint256",
                    "name": "",
                    "type": "uint256"
                }
            ],
            "name": "roots",
            "outputs": [
                {
                    "internalType": "bool",
                    "name": "",
                    "type": "bool"
                }
            ],
            "stateMutability": "view",
            "type": "function"
        },
        {
            "inputs": [],
            "name": "treeLevel",
            "outputs": [
                {
                    "internalType": "uint8",
                    "name": "",
                    "type": "uint8"
                }
            ],
            "stateMutability": "view",
            "type": "function"
        },
        {
            "inputs": [],
            "name": "verifier",
            "outputs": [
                {
                    "internalType": "address",
                    "name": "",
                    "type": "address"
                }
            ],
            "stateMutability": "view",
            "type": "function"
        },
        {
            "inputs": [
                {
                    "internalType": "uint256[2]",
                    "name": "_pA",
                    "type": "uint256[2]"
                },
                {
                    "internalType": "uint256[2][2]",
                    "name": "_pB",
                    "type": "uint256[2][2]"
                },
                {
                    "internalType": "uint256[2]",
                    "name": "_pC",
                    "type": "uint256[2]"
                },
                {
                    "internalType": "uint256[2]",
                    "name": "_pubSignals",
                    "type": "uint256[2]"
                }
            ],
            "name": "withdraw",
            "outputs": [],
            "stateMutability": "payable",
            "type": "function"
        }
    ],
    "bytecode": "0x6080604052600a600260146101000a81548160ff021916908360ff16021790555067016345785d8a000060035560006004556040518061014001604052807fd4b1397294ac371d7e6327985b84e513e1a67d7511cd9e97c8d863f475234ff381526020017f7a1950291d8f8d98ffa31fb48d4ade1f75579c189663a7ad6253e054eb3c6e0281526020017f9a5bd8dcbf46dd9d94aa5f453a88c30ea30078f4233b48b7e6a09c309efcaacf81526020017f10d25a62653575746e8c8d14d457cad6d4d84237f8c0469f2b6fc1d8eefdedcf81526020017fb8cca00d5457eeba20a4a2559e4b7b8474aa461fdcca193ab9c684f42548a79281526020017ff1fa21b6a1c7e39c31bc19188cd3492b0093f7a08b3a5452bcc90fd72e39169b81526020017fa7719a5fce76578cf8f2fe028aa33a8d8dafbb9d56d135d6bdbb98b588bfbe4d81526020017fd74b7e6e290c206af23fa785f7088f4646778a6f4e238bff11a81493b421da6b81526020017f43b04fd9e248d46a8e3c53786aaa06abcbc7152859d957393a7ed77f937b82df81526020017f4a6b78ef2b2e9ae43bb3c90c13058a03141de722292df4b889908ef2f19fd3e6815250600990600a620001c99291906200028f565b50348015620001d757600080fd5b5060405162001e1f38038062001e1f8339818101604052810190620001fd91906200035d565b600160008190555081600260006101000a81548173ffffffffffffffffffffffffffffffffffffffff021916908373ffffffffffffffffffffffffffffffffffffffff16021790555080600160006101000a81548173ffffffffffffffffffffffffffffffffffffffff021916908373ffffffffffffffffffffffffffffffffffffffff1602179055505050620003a4565b82600a8101928215620002c1579160200282015b82811115620002c0578251825591602001919060010190620002a3565b5b509050620002d09190620002d4565b5090565b5b80821115620002ef576000816000905550600101620002d5565b5090565b600080fd5b600073ffffffffffffffffffffffffffffffffffffffff82169050919050565b60006200032582620002f8565b9050919050565b620003378162000318565b81146200034357600080fd5b50565b60008151905062000357816200032c565b92915050565b60008060408385031215620003775762000376620002f3565b5b6000620003878582860162000346565b92505060206200039a8582860162000346565b9150509250929050565b611a6b80620003b46000396000f3fe60806040526004361061009c5760003560e01c8063b6b55f2511610064578063b6b55f251461019c578063b8e79564146101b8578063c2b40ae4146101e3578063c78784d714610220578063d54000471461023c578063ed33639f146102795761009c565b806306683e4b146100a15780632b7ac3f3146100cc57806349ce8997146100f75780637b5758b1146101345780638bca6d1614610171575b600080fd5b3480156100ad57600080fd5b506100b66102a4565b6040516100c39190610c5d565b60405180910390f35b3480156100d857600080fd5b506100e16102aa565b6040516100ee9190610cb9565b60405180910390f35b34801561010357600080fd5b5061011e60048036038101906101199190610d05565b6102d0565b60405161012b9190610d4d565b60405180910390f35b34801561014057600080fd5b5061015b60048036038101906101569190610d05565b6102f0565b6040516101689190610d4d565b60405180910390f35b34801561017d57600080fd5b50610186610310565b6040516101939190610c5d565b60405180910390f35b6101b660048036038101906101b19190610d05565b610316565b005b3480156101c457600080fd5b506101cd610779565b6040516101da9190610d84565b60405180910390f35b3480156101ef57600080fd5b5061020a60048036038101906102059190610d05565b61078c565b6040516102179190610d4d565b60405180910390f35b61023a60048036038101906102359190610de8565b6107ac565b005b34801561024857600080fd5b50610263600480360381019061025e9190610e7d565b610b45565b6040516102709190610c5d565b60405180910390f35b34801561028557600080fd5b5061028e610b5d565b60405161029b9190610f09565b60405180910390f35b60045481565b600160009054906101000a900473ffffffffffffffffffffffffffffffffffffffff1681565b60086020528060005260406000206000915054906101000a900460ff1681565b60076020528060005260406000206000915054906101000a900460ff1681565b60035481565b61031e610b83565b6003543414610362576040517f08c379a000000000000000000000000000000000000000000000000000000000815260040161035990610f81565b60405180910390fd5b6008600082815260200190815260200160002060009054906101000a900460ff16156103c3576040517f08c379a00000000000000000000000000000000000000000000000000000000081526004016103ba90610fed565b60405180910390fd5b600260149054906101000a900460ff1660026103df919061116f565b60045410610422576040517f08c379a000000000000000000000000000000000000000000000000000000000815260040161041990611206565b60405180910390fd5b600061042c610bdc565b610434610bff565b60006004549050600085905060008061044b610c22565b60005b600260149054906101000a900460ff1660ff168160ff1610156106b6578460066000600260149054906101000a900460ff1660ff1660ff1681526020019081526020016000208190555060006002876104a79190611255565b036105305784935060098160ff16600a81106104c6576104c5611286565b5b0154925060098160ff16600a81106104e1576104e0611286565b5b0154888260ff16600a81106104f9576104f8611286565b5b6020020181815250506000878260ff16600a811061051a57610519611286565b5b602002019060ff16908160ff16815250506105b2565b600660008260ff1660ff168152602001908152602001600020549350849250600660008260ff1660ff16815260200190815260200160002054888260ff16600a811061057f5761057e611286565b5b6020020181815250506001878260ff16600a81106105a05761059f611286565b5b602002019060ff16908160ff16815250505b83826000600281106105c7576105c6611286565b5b60200201818152505082826001600281106105e5576105e4611286565b5b6020020181815250506000600260009054906101000a900473ffffffffffffffffffffffffffffffffffffffff1673ffffffffffffffffffffffffffffffffffffffff1663d622e5a4848d6040518363ffffffff1660e01b815260040161064d929190611360565b602060405180830381865afa15801561066a573d6000803e3d6000fd5b505050506040513d601f19601f8201168201806040525081019061068e919061139e565b90508095506002876106a091906113cb565b96505080806106ae906113fc565b91505061044e565b508397506001600560008a815260200190815260200160002060006101000a81548160ff0219169083151502179055506001600460008282546106f99190611425565b925050819055506001600860008b815260200190815260200160002060006101000a81548160ff021916908315150217905550877fe6ab8667cb740d6c65a4ad321c031eb42f6c5085d5753238d1b2e1e370c13483888860405161075e929190611588565b60405180910390a25050505050505050610776610bd2565b50565b600260149054906101000a900460ff1681565b60056020528060005260406000206000915054906101000a900460ff1681565b6107b4610b83565b6000816000600281106107ca576107c9611286565b5b602002013590506000826001600281106107e7576107e6611286565b5b602002013590506007600082815260200190815260200160002060009054906101000a900460ff161561084f576040517f08c379a0000000000000000000000000000000000000000000000000000000008152600401610846906115ff565b60405180910390fd5b6005600083815260200190815260200160002060009054906101000a900460ff166108af576040517f08c379a00000000000000000000000000000000000000000000000000000000081526004016108a69061166b565b60405180910390fd5b60003373ffffffffffffffffffffffffffffffffffffffff1690506000600160009054906101000a900473ffffffffffffffffffffffffffffffffffffffff1673ffffffffffffffffffffffffffffffffffffffff1688888860405180606001604052808981526020018881526020018781525060405160240161093694939291906117e7565b6040516020818303038152906040526311479fea60e01b6020820180517bffffffffffffffffffffffffffffffffffffffffffffffffffffffff8381831617835250505050604051610988919061189f565b6000604051808303816000865af19150503d80600081146109c5576040519150601f19603f3d011682016040523d82523d6000602084013e6109ca565b606091505b5050905080610a0e576040517f08c379a0000000000000000000000000000000000000000000000000000000008152600401610a0590611902565b60405180910390fd5b60016007600085815260200190815260200160002060006101000a81548160ff021916908315150217905550600033905060008173ffffffffffffffffffffffffffffffffffffffff16600354604051610a6790611948565b60006040518083038185875af1925050503d8060008114610aa4576040519150601f19603f3d011682016040523d82523d6000602084013e610aa9565b606091505b5050905080610aed576040517f08c379a0000000000000000000000000000000000000000000000000000000008152600401610ae4906119a9565b60405180910390fd5b843373ffffffffffffffffffffffffffffffffffffffff167f7fcf532c15f0a6db0bd6d0e038bea71d30d808c7d98cb3bf7268a95bf5081b6560405160405180910390a3505050505050610b3f610bd2565b50505050565b60066020528060005260406000206000915090505481565b600260009054906101000a900473ffffffffffffffffffffffffffffffffffffffff1681565b600260005403610bc8576040517f08c379a0000000000000000000000000000000000000000000000000000000008152600401610bbf90611a15565b60405180910390fd5b6002600081905550565b6001600081905550565b604051806101400160405280600a90602082028036833780820191505090505090565b604051806101400160405280600a90602082028036833780820191505090505090565b6040518060400160405280600290602082028036833780820191505090505090565b6000819050919050565b610c5781610c44565b82525050565b6000602082019050610c726000830184610c4e565b92915050565b600073ffffffffffffffffffffffffffffffffffffffff82169050919050565b6000610ca382610c78565b9050919050565b610cb381610c98565b82525050565b6000602082019050610cce6000830184610caa565b92915050565b600080fd5b610ce281610c44565b8114610ced57600080fd5b50565b600081359050610cff81610cd9565b92915050565b600060208284031215610d1b57610d1a610cd4565b5b6000610d2984828501610cf0565b91505092915050565b60008115159050919050565b610d4781610d32565b82525050565b6000602082019050610d626000830184610d3e565b92915050565b600060ff82169050919050565b610d7e81610d68565b82525050565b6000602082019050610d996000830184610d75565b92915050565b600080fd5b600081905082602060020282011115610dc057610dbf610d9f565b5b92915050565b600081905082604060020282011115610de257610de1610d9f565b5b92915050565b6000806000806101408587031215610e0357610e02610cd4565b5b6000610e1187828801610da4565b9450506040610e2287828801610dc6565b93505060c0610e3387828801610da4565b925050610100610e4587828801610da4565b91505092959194509250565b610e5a81610d68565b8114610e6557600080fd5b50565b600081359050610e7781610e51565b92915050565b600060208284031215610e9357610e92610cd4565b5b6000610ea184828501610e68565b91505092915050565b6000819050919050565b6000610ecf610eca610ec584610c78565b610eaa565b610c78565b9050919050565b6000610ee182610eb4565b9050919050565b6000610ef382610ed6565b9050919050565b610f0381610ee8565b82525050565b6000602082019050610f1e6000830184610efa565b92915050565b600082825260208201905092915050565b7f696e636f727265637420616d6f756e7400000000000000000000000000000000600082015250565b6000610f6b601083610f24565b9150610f7682610f35565b602082019050919050565b60006020820190508181036000830152610f9a81610f5e565b9050919050565b7f6475706c696361746520636f6d6d69746d656e74206861736800000000000000600082015250565b6000610fd7601983610f24565b9150610fe282610fa1565b602082019050919050565b6000602082019050818103600083015261100681610fca565b9050919050565b7f4e487b7100000000000000000000000000000000000000000000000000000000600052601160045260246000fd5b60008160011c9050919050565b6000808291508390505b60018511156110935780860481111561106f5761106e61100d565b5b600185161561107e5780820291505b808102905061108c8561103c565b9450611053565b94509492505050565b6000826110ac5760019050611168565b816110ba5760009050611168565b81600181146110d057600281146110da57611109565b6001915050611168565b60ff8411156110ec576110eb61100d565b5b8360020a9150848211156111035761110261100d565b5b50611168565b5060208310610133831016604e8410600b841016171561113e5782820a9050838111156111395761113861100d565b5b611168565b61114b8484846001611049565b925090508184048111156111625761116161100d565b5b81810290505b9392505050565b600061117a82610c44565b915061118583610d68565b92506111b27fffffffffffffffffffffffffffffffffffffffffffffffffffffffffffffffff848461109c565b905092915050565b7f747265652066756c6c0000000000000000000000000000000000000000000000600082015250565b60006111f0600983610f24565b91506111fb826111ba565b602082019050919050565b6000602082019050818103600083015261121f816111e3565b9050919050565b7f4e487b7100000000000000000000000000000000000000000000000000000000600052601260045260246000fd5b600061126082610c44565b915061126b83610c44565b92508261127b5761127a611226565b5b828206905092915050565b7f4e487b7100000000000000000000000000000000000000000000000000000000600052603260045260246000fd5b600060029050919050565b600081905092915050565b6000819050919050565b6112de81610c44565b82525050565b60006112f083836112d5565b60208301905092915050565b6000602082019050919050565b611312816112b5565b61131c81846112c0565b9250611327826112cb565b8060005b8381101561135857815161133f87826112e4565b965061134a836112fc565b92505060018101905061132b565b505050505050565b60006060820190506113756000830185611309565b6113826040830184610c4e565b9392505050565b60008151905061139881610cd9565b92915050565b6000602082840312156113b4576113b3610cd4565b5b60006113c284828501611389565b91505092915050565b60006113d682610c44565b91506113e183610c44565b9250826113f1576113f0611226565b5b828204905092915050565b600061140782610d68565b915060ff820361141a5761141961100d565b5b600182019050919050565b600061143082610c44565b915061143b83610c44565b92508282019050808211156114535761145261100d565b5b92915050565b6000600a9050919050565b600081905092915050565b6000819050919050565b6000602082019050919050565b61148f81611459565b6114998184611464565b92506114a48261146f565b8060005b838110156114d55781516114bc87826112e4565b96506114c783611479565b9250506001810190506114a8565b505050505050565b6000600a9050919050565b600081905092915050565b6000819050919050565b61150681610d68565b82525050565b600061151883836114fd565b60208301905092915050565b6000602082019050919050565b61153a816114dd565b61154481846114e8565b925061154f826114f3565b8060005b83811015611580578151611567878261150c565b965061157283611524565b925050600181019050611553565b505050505050565b60006102808201905061159e6000830185611486565b6115ac610140830184611531565b9392505050565b7f616c7265616479207370656e7400000000000000000000000000000000000000600082015250565b60006115e9600d83610f24565b91506115f4826115b3565b602082019050919050565b60006020820190508181036000830152611618816115dc565b9050919050565b7f6e6f7420726f6f74000000000000000000000000000000000000000000000000600082015250565b6000611655600883610f24565b91506116608261161f565b602082019050919050565b6000602082019050818103600083015261168481611648565b9050919050565b82818337505050565b6116a06040838361168b565b5050565b600060029050919050565b600081905092915050565b6000819050919050565b6116d06040838361168b565b5050565b60006116e083836116c4565b60408301905092915050565b600082905092915050565b6000604082019050919050565b61170d816116a4565b61171781846116af565b9250611722826116ba565b8060005b8381101561175b5761173882846116ec565b61174287826116d4565b965061174d836116f7565b925050600181019050611726565b505050505050565b600060039050919050565b600081905092915050565b6000819050919050565b6000602082019050919050565b61179981611763565b6117a3818461176e565b92506117ae82611779565b8060005b838110156117df5781516117c687826112e4565b96506117d183611783565b9250506001810190506117b2565b505050505050565b6000610160820190506117fd6000830187611694565b61180a6040830186611704565b61181760c0830185611694565b611825610100830184611790565b95945050505050565b600081519050919050565b600081905092915050565b60005b83811015611862578082015181840152602081019050611847565b60008484015250505050565b60006118798261182e565b6118838185611839565b9350611893818560208601611844565b80840191505092915050565b60006118ab828461186e565b915081905092915050565b7f696e76616c69642070726f6f6600000000000000000000000000000000000000600082015250565b60006118ec600d83610f24565b91506118f7826118b6565b602082019050919050565b6000602082019050818103600083015261191b816118df565b9050919050565b50565b6000611932600083611839565b915061193d82611922565b600082019050919050565b600061195382611925565b9150819050919050565b7f7472616e73616374696f6e206661696c65640000000000000000000000000000600082015250565b6000611993601283610f24565b915061199e8261195d565b602082019050919050565b600060208201905081810360008301526119c281611986565b9050919050565b7f5265656e7472616e637947756172643a207265656e7472616e742063616c6c00600082015250565b60006119ff601f83610f24565b9150611a0a826119c9565b602082019050919050565b60006020820190508181036000830152611a2e816119f2565b905091905056fea2646970667358221220e475809c254cd6160b9e04f3f42580ac0abef457b59be28f6b382923a093743564736f6c63430008110033",
    "linkReferences": {},
    "deployedLinkReferences": {}
}